:020000040800F2
:10000000C80F0020D5000008E9140008D513000827
:1000100000000000000000000000000000000000E0
:1000200000000000000000000000000001160008B1
:100030000000000000000000311500080316000851
:10004000E7000008E7000008E7000008E7000008F4
:10005000E7000008E7000008E7000008E7000008E4
:10006000E7000008E7000008E7000008E7000008D4
:10007000E7000008E700000800000000E7000008B3
:1000800000000000E7000008000000000000000081
:10009000E700000800000000E7000008E700000893
:1000A000E7000008E7000008E7000008E700000894
:1000B0006D1B0008E7000008E7000008E7000008E3
:1000C0000348854600F08EF800480047F92A0008EA
:1000D000C80F00200448804704480047FEE7FEE7B9
:1000E000FEE7FEE7FEE7FEE77D160008C100000818
:1000F00030B50B46014600202022012409E00D46C0
:10010000D5409D4205D31D469540491B2546954047
:1001100040191546521E002DF1DC30BDF0B51FB45C
:100120000646002082B005464024019100901BE065
:10013000019922460F46304600F042F8049A059B8A
:10014000801A994110D310461946224600F028F82B
:10015000361A8F410197224601200021009F00F0AE
:100160001FF838184D4100902046641E0028DFDC3F
:10017000019B00982946324607B0F0BDD2B201E09B
:100180000270401C491EFBD270470022F6E710B5F2
:1001900013460A4604461946FFF7F0FF204610BDF5
:1001A00010B5202A04DB0146203A9140002010BD02
:1001B000914020239C1A0346E3401943904010BD10
:1001C00010B5202A04DB0846203AD040002110BD9B
:1001D0000B46D340D0402024A21A91400843194630
:1001E00010BD0000064C0125064E05E0E36807CC73
:1001F0002B430C3C98471034B442F7D3FFF764FF0D
:100200007C3A00089C3A000810B501F0CBFC10BD08
:1002100070B50024014620314A79022A03D0042116
:10022000C163012418E0026813680E25AB43136014
:10023000026813685B085B001360436C1C22134068
:10024000012215469D40036C5D604A7100220A71CF
:10025000816B002900D08847204670BD70B50446E8
:1002600000F0CCF80546601C00D0641C00F0C6F815
:10027000401BA042FAD370BDF8B500230124A2E0D0
:1002800027469F403A4070D04D68022D01D0122D74
:1002900014D1DD08AD002D1800952D6A5E07AC461F
:1002A000F50E0F26AE46AE406546B543AC460E6928
:1002B0007546AE4065462E43009D2E624D68012D69
:1002C00005D0022D03D0112D01D0122D16D1856835
:1002D0000326AC465D00AE46AE406546B543AC462F
:1002E000CE687546AE4065462E43866046680D79F9
:1002F000BE43ED06ED0F9D403543456006685F0047
:100300000325BD40AE46AE430D79B446AE07B60FE9
:10031000BE4065462E430660C6687546AE438D688E
:10032000BD403543C5604D68ED004BD5294D6E6B22
:1003300026436E639E08284DB6007519AC46AD681D
:100340009E07360F0F27B740BD4305273F07B8422A
:1003500001D1002715E0214FB84201D1012710E05B
:100360001F4FB84202D102270BE02BE01D4FB842CD
:1003700001D1032705E01C4FB84201D1052700E059
:100380000627B7402F436546AF60184D2E684F686B
:100390009643FF0300D516432E606E684F68964360
:1003A000BF0300D516436E60AE684F689643FF02E8
:1003B00000D51643AE60EE684F689643BF0200D585
:1003C0001643EE605B1C0A681546DD4000D057E717
:1003D000F8BD000000100240000001400004005081
:1003E00000080050000C0050001C005000040140A8
:1003F000002A01D08161704781627047014800681E
:10040000704700007400002002480168491C016028
:10041000704700007400002010B5084800240168EF
:10042000402211430160204600F00AF8002801D064
:10043000012401E000F01CF8204610BD002002401D
:1004400070B5054609487D210024C9000068FFF702
:100450004FFE00F0ADFD002801D0012404E0002291
:100460002946501E00F01AF8204670BD7800002082
:100470000448416B012211434163816B0204114323
:100480008163704700100240C106C90E01208840F8
:10049000014908607047000000E100E010B501F07C
:1004A00025F810BDF8B504460068614D810601D4F9
:1004B00000057DD55E4E0027403EB06BC00004D4E1
:1004C000B06B31040843B06301275A480168C9057D
:1004D00011D40168821511430160FFF78FFF00906E
:1004E00005E0FFF78BFF0099401A642844D8514873
:1004F0000068C005F5D53168032000056268014039
:100500001040884205D10323A0681B05184088428B
:1005100008D09003800F032804D13068800301D5F0
:100520000120F8BD286903210904084029D00A40A8
:10053000824202D02278920606D4A2680A40824201
:100540001FD0208800051CD528692A69884301210D
:10055000C9040A432A612A698A432A612861C005BD
:100560000FD5FFF74BFF009008E0FFF747FF00991A
:10057000411A3148814201D90320F8BD286980051C
:10058000F3D561688803800F032805D13268000520
:10059000824301400A4332602869032261681204E1
:1005A000114008432861002F06D0B16B012000E004
:1005B00002E000078143B1632078C00705D0E868F6
:1005C000E168800880000843E8602078800705D54E
:1005D000E8680C21884321690843E86020784007D7
:1005E00006D5E86803218902884361690843E86009
:1005F0002078000706D5E868032109038843A1692C
:100600000843E8602078400606D5E868012189069D
:100610008843216A0843E8602078000606D5E86828
:10062000032189048843E1690843E8600020F8BD9C
:10063000401002400070004088130000F8B50E46DC
:1006400005007DD053480068C007C00FB0420AD2F1
:100650005048016849084900314301600068C007FB
:10066000C00FB04271D128784B4C800705D5E068A7
:10067000F0218843A9680843E0602878C00752D079
:100680006868022817D0032818D02168012818D0DC
:100690008905002959DAE168890889000143E16088
:1006A000FFF7ACFE69680746022912D003291CD067
:1006B000012926D033E021688903EAE7216889010E
:1006C000E7E74907E5E7FFF799FEC11B3348814299
:1006D00023D8E0680007800F0228F4D123E0FFF759
:1006E0008DFEC11B2D48814217D8E0680007800F9E
:1006F0000328F4D117E0FFF781FEC11B2748814290
:100700000BD8E0680007800F0128F4D10BE0FFF759
:1007100075FEC11B2148814201D90320F8BDE06864
:100720000007800FF3D11B480168C907C90FB14208
:100730000DD901684908490031430160006800E0B3
:1007400003E0C007C00FB04201D00120F8BD2878F7
:10075000400706D5E068072109028843E968084395
:10076000E0602878000707D5E0680721C9028843C0
:100770002969C9000843E06000F036F8E168084ADA
:100780000906090F515CC840064908600020FFF7C0
:1007900057FEF8BD00200240001002408813000000
:1007A000E038000878000020044805490068C9685E
:1007B000044A4905490F515CC84070477800002041
:1007C00000100240F9380008044805490068C9686B
:1007D000044A8904490F515CC840704778000020E2
:1007E00000100240F938000810B5184AD1680C20F2
:1007F000084004280BD0082810D00C2810D05068CE
:100800000004410F0120C003491C884010BD10683E
:10081000C00601D50E4810BD0E4810BD0E4810BDD3
:1008200088020E4B000F185C0902D368890F491C1F
:10083000DB0301D5084A05E01268D20601D5044A57
:1008400000E0044A5043FFF753FC10BD0010024083
:1008500000093D000024F40000127A00F03800087E
:10086000FEB505007ED0FE4CE7680C20E668074028
:100870000120000406402878C00747D0082F05D083
:100880000C2F0AD101200004864206D12068800383
:100890003CD568680028E5D038E00120696800048C
:1008A000814203D121680143216011E00523012227
:1008B0001B0492049942216802D111432160F1E79F
:1008C00081432160216801400091206890432060AD
:1008D000686800280DD0FFF791FD009005E0FFF754
:1008E0008DFD0099401A64287AD820688003F6D5D7
:1008F0000CE0FFF783FD009005E0FFF77FFD009916
:10090000401A6428F0D820688003F6D4287880073D
:1009100055D50923E868042F0DD00C2F01D1002EE6
:1009200009D000283BD02168994301432160FFF79B
:1009300065FD064627E02168490701D5002891D0CA
:1009400061681F22120291432A69120211436160F9
:100950002168994301432160FFF746FFE1680906DA
:100960000A0F00E0BBE1BF49895CC840BE4908608E
:100970000020FFF765FD002872D120E0FFF73EFD63
:10098000801B0228B0D820684007F7D560681F2177
:100990000902884329690902084360600FE0206862
:1009A000400840002060FFF729FD064604E0FFF7FD
:1009B00025FD801B022897D820684007F7D42878A7
:1009C000C0065FD5002F0CD0E869002849D0206808
:1009D000FF21013108432060FFF710FD06462DE09E
:1009E000E4E02068800502D5E8690028A7D06068A7
:1009F000072149038843696A084360606068298C5D
:100A00000002000A090608436060686A410B012081
:100A1000C003491C8840E16809060A0F9149895CB6
:100A2000C840914908600020FFF70AFD002817D14F
:100A300028E0FFF7E3FC801B0228A3D8206880058C
:100A4000F7D56068072149038843696A08436060F5
:100A50006068298C0002000A09060843606011E002
:100A600023E12168FF20013081432160FFF7C6FCAC
:100A7000064604E0FFF7C2FC801B02289BD82068D2
:100A80008005F7D42878794E000724D568690028B6
:100A9000306910D0012108433061FFF7AFFC0090AE
:100AA00005E0FFF7ABFC0099401A02287ED83069B8
:100AB0008007F6D50FE0400840003061FFF79EFC4C
:100AC000009005E0FFF79AFC0099401A02286DD8C3
:100AD00030698007F6D42878400764D5002002905A
:100AE000A06BC00006D4A06B012109070843A063D6
:100AF000012002905E480168C90511D40168821581
:100B000011430160FFF77AFC009005E0FFF776FCE7
:100B10000099401A642849D855480068C005F5D5A1
:100B2000FF20AA680130824203D13169014331615B
:100B300011E001218902002A07D005231B029A42F5
:100B400003D132690A433261EFE73269824332618D
:100B5000306988433061A86800280ED0FFF74EFC4A
:100B6000009006E0FFF74AFC0099411A4148814293
:100B70001CD830698005F5D50DE0FFF73FFC0090EB
:100B800006E0FFF73BFC0099411A3A4881420DD834
:100B900030698005F5D40298002804D0A16B0120AB
:100BA00000078143A1632878800600E07CE02ED511
:100BB0003148A9694314002916D0A26801210A43CB
:100BC000A260626B0A436263016A19430162FFF724
:100BD00015FC064604E0FFF711FC801B022863D8D1
:100BE000A0688007F7D512E0A16849084900A16014
:100BF000016A99430162FFF701FC064604E0FFF732
:100C0000FDFB801B02284FD8A0688007F7D4A86A94
:100C1000002866D00C2F4DD0012636060228206809
:100C200005D0B0432060FFF7E9FB05463EE0B04346
:100C30002060FFF7E3FB074604E0FFF7DFFBC01B84
:100C4000022831D820688001F7D4296BE86AE2686D
:100C50000843696BFD231B049A43114308430DE0CD
:100C600000100240E03800087800002040100240E8
:100C7000007000408813000000000140E060206820
:100C800030432060FFF7BAFB054604E0FFF7B6FBF0
:100C9000401B022808D820688001F7D521E0FFF723
:100CA000ADFB401B022801D90320FEBD2068800156
:100CB000F5D416E00128F8D0E06801210904EA6AB9
:100CC000014091420BD10F2189042A6B01409142CE
:100CD00005D1032189050840696B884201D00120B4
:100CE000FEBD0020FEBD70B5040007D000262546DD
:100CF0004035A662687C002802D005E0012070BD66
:100D00002E74204600F030F80220687420680168D4
:100D1000402291430160A168606822690843E1684C
:100D200011430843616901220843A169520211403D
:100D30000843E1690843216A0843A16A084321681E
:100D40000860A0690421000C0840616A084321681A
:100D500048602068C16992009143C16166650120C5
:100D60006874002070BD000010B586B004461421E0
:100D70006846FFF70AFA10492068884219D10F48DF
:100D8000416B821411434163C16A01221143C16264
:100D9000C06A002110400590E020009002200190E0
:100DA0000320039002910491052069460007FFF794
:100DB00063FA06B010BD0000003001400010024090
:100DC000FFB5044683B0012001900020264640363E
:100DD0000090307C0C9F1D4601280FD001203074FC
:100DE000FFF70CFB0290707C616801280DD0CA1FD0
:100DF000FD3A08D1A168002905D102E0022007B020
:100E0000F0BD042801D00220C3E00498002828D0B7
:100E10000598002825D0002D23D0707C042801D00F
:100E200005207074002060650599A163E587A5879A
:100E300004992163E586A5862064606420680168C2
:100E4000490603D401684022114301600121E06892
:100E5000C9028842606848D1002804D0012D02D020
:100E60003CE0012095E0206B21680088C860206B81
:100E7000801C2063E08E401EE0862FE020688168A1
:100E8000890710D5E18E00290DD0019901290AD1D9
:100E9000216B0988C160206B801C2063E08E401E9E
:100EA000E0860020019020688168C9070DD0E18F9D
:100EB00000290AD0C068A16B0880A06B801CA063C9
:100EC000E08F401EE08701200190FFF797FA01466E
:100ED0000298081AB84201D3781C59D1E08E002834
:100EE000CCD1E08F0028C9D146E0002801D0012DE7
:100EF0003CD1206B216800780873206B401C206374
:100F0000E08E401EE08631E020688168890710D5B8
:100F1000E18E00290DD0019901290AD1216B0978B0
:100F20000173206B401C2063E08E401EE086002091
:100F3000019020688168C9070DD0E18F00290AD08F
:100F4000C068A16B0870A06B401CA063E08F401EBE
:100F5000E08701200190FFF751FA0299401AB84248
:100F600002D3781C02D013E0002F11D0E08E0028AD
:100F7000CAD1E08F0028C7D139462046029A00F036
:100F8000D8FA002807D0012000902020606509E0F1
:100F90000320009006E0A068002803D12068C16803
:100FA000806801900120707400203074009826E75A
:100FB000094910B5401E884201D9012010BD074CD7
:100FC00060610321081F00F091FA0020A061072052
:100FD0002061002010BD0000FFFFFF0000E000E0E6
:100FE00070477047F8B502680446D0691168936885
:100FF00005072D0F5BD0DD07ED0FFF2621360E40D4
:101000002E4367D0C60706D0CE0504D5012616624A
:10101000E26F3243E267870702220426002F06DAD6
:10102000DF0704D027683A62E76F3743E76747076F
:1010300006D5DB0704D023681E62E36F1343E36722
:10104000020709D520220A402A4305D02368082236
:101050001A62E36F1343E367E26F002A2FD0800622
:1010600006D5880604D5216E002901D02046884780
:10107000E06F21688968490601D4000724D520461D
:1010800000F0C6FB20688168490619D581684022B6
:1010900091438160E06E002812D020498163E06EA8
:1010A000FFF7B6F800280AD0E06E816B06E08506EF
:1010B00010D58D060ED5216E1CE020468847F8BD60
:1010C0002046FFF78EFFF8BD2046FFF78AFF00207D
:1010D000E067F8BDC50208D55B0206D50120000512
:1010E00010622046FFF77CFFF8BD030605D50B060E
:1010F00003D5616E0029E0D1F8BD4006FCD5480655
:10110000FAD51368204640218B4313602021616784
:101110000021616600F05DF9F8BD0000FD170008D0
:1011200010B5040003D0606F002802D007E0012052
:1011300010BD002170200155204600F027F8242022
:10114000606720680168490849000160204600F096
:10115000C7FB0128ECD0606A002802D0204600F0CE
:10116000B7FA206841680922D202914341602068A1
:1011700081682A229143816020680168012211431D
:101180000160204600F00AFB10BD000010B586B0DB
:10119000044614216846FEF7F8FF15492068884286
:1011A00023D11448816B0122520411438163C16A27
:1011B00001221143C162C06A6946104005900C20AB
:1011C0000090022001900020029003200390042050
:1011D000049005200007FFF74FF8002211461C205D
:1011E000FFF75CF91C20FFF74FF906B010BD0000B7
:1011F0000044004000100240F0B5836F202B54D112
:1012000000290AD0002A08D08568DC01A54206D151
:101210000369002B03D1CB0701D00120F0BD0346A9
:1012200060331E7C012E40D001261E7441650146AC
:1012300040310A834A830022FF260266A54204D178
:101240000569002D13D11A4D0AE07F27002D09D022
:1012500001263607B5420CD10569002D05D03F2582
:101260008D8307E00569002D01D08F8302E08E8316
:1012700000E08A83C2672221816701688D680126A8
:1012800035438D608168A14202D1016900290AD0ED
:10129000084901661A7400680168FF22213211436F
:1012A00001600020F0BD0449F3E70220F0BD00001A
:1012B000FF010000891800083118000810B501224C
:1012C0000D490E48FFF798FF7D23DB0001220A49F4
:1012D0000A4800F017F80849094B48680A781A5478
:1012E000401C48600D2A03D001225202904201D9CD
:1012F0000120886010BD000000000020280B0020A5
:10130000D0000020FFB50446406F83B017460D465D
:1013100020285CD1002D0AD0002F08D0A168C00180
:10132000814207D12069002804D1E80702D00120BA
:1013300007B0F0BD204660300290007C012846D006
:101340000298012101740020E06721206067FFF707
:1013500055F8264640360190378277820120A168F1
:101360000003814202D12069002802D02F460025C7
:1013700011E000270FE000228021204600F0C4FB8E
:10138000002815D1002F15D02168387888627F1C7D
:10139000708A401E7082708A019B00280698009017
:1013A000E9D100224021204600F0AEFB002808D001
:1013B0000320BDE728882168C005C00D8862AD1CE8
:1013C000E6E720206067029900200874B0E7022059
:1013D000AEE77047FEE70000F0B587B0142168461D
:1013E000FEF7D3FE2248C26A04210A43C262C26ADF
:1013F0000A400592C16A80252943C162C16A294019
:101400000591C16A01263143C162C16A314005912B
:10141000C26A02210A43C262C06A164F08400590A0
:10142000002280213846FEF7E3FF002240211248C7
:10143000FEF7DEFFA80100901048002401906946E5
:1014400002943846FEF718FF029469463846019622
:1014500000950394FEF710FF402000900294694627
:10146000019603940448FEF707FF07B0F0BD0000A3
:10147000001002400008005000040050000021103D
:1014800010B50C480A490160FF2105314160002177
:101490008160C16001614161C1610122016252024A
:1014A0004162826181620721C162FFF71CFC10BDAD
:1014B00000300140D00A002010B50A4808490160F8
:1014C000E1214902416000218160C16001618161C7
:1014D000C1610C22016242614162FFF721FE10BD31
:1014E00000440040280B0020704700008307FF22C3
:1014F000DB0E9A408907090E994000280BDA000795
:10150000000F0838830808489B001818C3699343E4
:101510000B43C3617047830804489B001B1818687D
:10152000904308431860704700ED00E000E400E0DD
:10153000704738B504464068FF230533202598429C
:1015400004D100920B460022802107E05120005D6B
:1015500005280DD100920B4600220121204600F003
:1015600009F8002804D0606D28436065032038BD69
:10157000002038BDF8B51D4617460E46044609E062
:10158000681C07D0FEF73AFF0699401AA8420BD212
:10159000002D09D020688168304688432ED0002075
:1015A000B842EDD10020F8BD20684168E0229143A7
:1015B00041606068C11FFD390CD10121A068C903D9
:1015C000884202D04911884204D120680168402233
:1015D000914301600120A16A4003814207D1216843
:1015E0000A6882430A6021680A6802430A6001208F
:1015F00040346074002020740320F8BD0120CFE740
:10160000704710B5FEF700FF10BD000010B59CB08C
:1016100038216846FEF7B9FD142117A8FEF7B5FD7D
:1016200024210EA8FEF7B1FD134801680322D2025F
:101630009143C21489180160102000900120079086
:10164000052000244003099008940A946846FFF797
:1016500007F90F201790189419941A9400211B94DD
:1016600017A8FEF7EBFF02200E9012940EA8FEF7CB
:1016700019FF1CB010BD0000007000401048016848
:10168000821511430160C1680E4A1140C1600168B2
:101690000D4A114001608168490849008160016874
:1016A0000122920491430160C168FD22120491431A
:1016B000C160002101610549C003886070470000D6
:1016C000001002400C40FF88F6FFF6FE00ED00E03F
:1016D00010B5818CC90707D001684A6801235B04F3
:1016E0009A43836A1A434A60818C890707D5016847
:1016F0004A6801231B049A43C36A1A434A60818CD7
:10170000490707D501684A6801239B049A43036B84
:101710001A434A60818C090707D501684A6801238A
:10172000DB039A43436B1A434A60818CC90607D591
:101730000268916801231B039943836B19439160ED
:10174000818C890607D501688A6801235B039A4367
:10175000C36B1A438A60818C490612D503685A68A4
:1017600001210905046C8A4322435A60026C8A42B3
:1017700007D10268516803235B059943436C194301
:101780005160818C090607D501684A680123DB0492
:10179000806C9A4302434A6010BD0000F8B50026F1
:1017A0000446C667FEF72AFE054620680068124F09
:1017B000000709D501212B46002249052046009744
:1017C00000F0A2F900280DD12068006840070BD571
:1017D00001212B46002289052046009700F094F94C
:1017E000002801D00320F8BD20206067A067603486
:1017F00026740020F8BD0000FFFFFF0110B5806ACD
:101800000022014640314A834A82FFF7EAFB10BDBD
:1018100001680A68FF2321339A430A6001688A68D5
:10182000520852008A6020218167002101667047BA
:1018300010B5014640318B8B846F0268222C04D096
:10184000906908210843906110BD526A446D1A40A6
:101850002280426D921C42654A8B521E4A83498BFC
:101860000029F1D101680A68FF2321339A430A60F5
:1018700001688A68520852008A602021816700212D
:101880000166FFF71BFD10BD10B5014640318B8B83
:10189000846F0268222C04D090690821084390616B
:1018A00010BD526A1A40436D1A70426D521C426557
:1018B0004A8B521E4A83498B0029F1D101680A687C
:1018C000FF2321339A430A6001688A685208520054
:1018D0008A602021816700210166FFF7EFFC10BDBF
:1018E000F8B504462669A268E769324366691020A4
:1018F00000253E432368324378491E68784F3E40B6
:1019000016431E6023685A6803263603B243E6680E
:1019100032435A602368A2698B4201D0266A32435F
:101920009E680B273F02BE4316439E606D4E2368A0
:101930006D4AB3420CD1D2689207920F06D0012AA9
:1019400038D0022A34D0032A20D11EE001201DE025
:10195000664EB3420AD1D2680C26324026D0042A01
:1019600028D0082A24D00C2A10D10EE08B420DD1A9
:10197000D66803229202164018D001229202B61AAB
:1019800018D0B61A14D0964200D10820564A012623
:10199000403A574FF6038B4236D100280CD002282C
:1019A0000DD0042812D008281FD11CE00020EDE73C
:1019B0000220EBE70420E9E7FEF7F6FE08E01068F6
:1019C000C00601D5384605E04A4803E0FEF70CFFA3
:1019D000002873D0626851005118814205D8110364
:1019E000814202D303E03046F4E7012566E0010EB0
:1019F00006025008002330185941FEF78FFB0321DF
:101A00000902411A3C4A55E0E169B14232D1030072
:101A100000F0FCF909070A0D06250606062B06004C
:101A2000E3E7FEF7C1FE1CE0FEF7CEFE19E010680A
:101A30006168C00602D54808304A01E0304A4808CB
:101A40008018FEF755FB80B201462E4A10399142AC
:101A5000CBD8511C01400007400F08432CE0FEF793
:101A6000C3FE616840004A08EAE76168012248084D
:101A70001204E5E7030000F0C9F909070A0D06267C
:101A80000606062C0600B0E7FEF78EFE1DE0FEF708
:101A90009BFE1AE010686168C00602D54808C019AC
:101AA00002E014484A081018FEF722FB80B20146F3
:101AB000144A1039914298D82168C86000202066E5
:101AC00060662846F8BDFEF78FFE61684A088018F8
:101AD000EAE7616848088019E6E70000004800402E
:101AE000F369FFEF0038014040100240004400401D
:101AF00000093D000024F400FFFC0F0000127A00F2
:101B00000048E801EFFF0000FFB581B017460E4620
:101B100004460A9D09E0681C07D0FEF76FFC049993
:101B2000401AA8420CD8002D0AD02068C16930465E
:101B3000884318D00020B842EDD0002005B0F0BD99
:101B400020680168FF22A13291430160206881680A
:101B500049084900816020206067A0670020603448
:101B600020740320EAE70120E5E7000010B50248F1
:101B7000FFF738FA10BD0000280B002010B5012235
:101B800040210248FEF734FC10BD00000004005064
:101B900010B5002240210248FEF72AFC10BD0000CB
:101BA0000004005000B585B000F06AF800231A4622
:101BB0001849194801F070F91849194801F05AF903
:101BC000184B0FCB019002A80EC06946172000F0F9
:101BD00047FC401C02D114A000F008F9009800282E
:101BE000F3D018A000F002F90220009001A904200F
:101BF00000F036FC401C02D115A000F0F7F8694651
:101C0000072000F02DFC401C02D118A000F0EEF8D7
:101C100005B000BDD51C0008AD1C00087D1B0008E8
:101C2000911B0008D0380008556E6B6E6F776E20E0
:101C3000504859206C696E6B207374617475732EF3
:101C40000D0A0000504859204F4B2E0D0A0000008D
:101C5000573631303020696E697469616C697A6514
:101C600064206661696C2E0D0A0000005736313021
:101C70003020696E746572727570740D0A00000010
:101C800010B5094C002280212046FEF7B1FB0A2046
:101C9000FEF7E4FA012280212046FEF7A9FB0A2084
:101CA000FEF7DCFA10BD0000000800500EB5002160
:101CB00068460171FF2101720A200090012301AAE8
:101CC00002A90348FFF77CF8684600790EBD0000C2
:101CD000D00A002001B582B00A200090012301AA99
:101CE00002A90248FFF76CF80EBD0000D00A0020E0
:101CF00038B5020C69460A70020A4A700A4C8870AC
:101D0000A068804720698047694688788870626A41
:101D1000032168469047A06980470546606980476F
:101D2000E0688047284638BD94000020F8B5154685
:101D30000E46020C69460A70020A4A700A4C887004
:101D4000A068804720698047694688788870626A01
:101D5000032168469047226A2946304690476069C9
:101D60008047E0688047F8BD9400002038B5030C38
:101D70006A461370030A53709070094CD170A068C2
:101D80008047206980476A46907804210843907014
:101D9000626A6846904760698047E068804738BD5E
:101DA00094000020F8B515460E46020C69460A70EC
:101DB000020A4A700C4C8870A068804720698047EE
:101DC000694688780421084369468870626A03215D
:101DD00068469047626A2946304690476069804766
:101DE000E0688047F8BD0000940000200FB410B5F3
:101DF00003A9044B044A029800F024F810BC08BC64
:101E000004B01847A1260008CC00002030B4744666
:101E1000641E2578641CAB4200D21D46635D5B00E6
:101E2000E31830BC184702E008C8121F08C1002A96
:101E3000FAD170477047002001E001C1121F002A4B
:101E4000FBD17047FFB591B00F460546002606E06E
:101E500025280AD0149A139990476D1C761C28786F
:101E60000028F5D1304615B0F0BD002400940121C2
:101E7000F34A029400E004436D1C2B780846203B93
:101E800098401042F7D128782A280ED002212878CD
:101E90000246303A092A15D8009A0A235A43303AA2
:101EA00080180C436D1C0090F1E701CF00900028D2
:101EB00005DA0120400304430098404200900220CC
:101EC00004436D1C28782E2815D10420044368781B
:101ED0006D1C2A280AD101CF6D1C02900BE00299DB
:101EE0000A225143303940186D1C0290287801466F
:101EF00030390929F3D928786C2810D006DC4C2811
:101F00001AD068280ED06A2817D104E0742813D09C
:101F10007A2812D110E00120400504430CE0012191
:101F2000090501E0032109050C436978814203D1C9
:101F30000120000524186D1C6D1C287803906E2864
:101F40001ED00CDC632831D004DC00288AD058284D
:101F500011D1B2E064287BD069280CD178E07328D5
:101F60002DD004DC6F2870D0702804D1A7E075282C
:101F70006CD078286BD0149A13999047761C62E045
:101F80006002400F022807D003280AD004283868CE
:101F90000AD006603F1D56E03868F11706604160C0
:101FA000F8E738680680F5E70670F3E738786946A1
:101FB00008740020487404A80390012003E03868E6
:101FC00003900020C0433F1D61070FD5002101E0B1
:101FD0000199491C029A0191914213DA8142F7DB7F
:101FE000019A0399895C0029F2D10BE0002101E0FC
:101FF0000199491C01918142FADB019A0399895C9C
:102000000029F5D101990098139A401A00902146B1
:10201000149B00F03BF901998019461807E00398DA
:1020200003990078491C0391149A139990470198D9
:10203000401E0190401CF2D12146149B139A009837
:1020400000F014F986196D1C09E741E033E034E033
:102050000A200021049005916002410F022905D059
:1020600001CFC2179446032905D007E0FF1DFF08E2
:10207000FF0003CF06E000B2C2179446042902D144
:1020800040B2C1178C4600226146944506DA0A46E2
:102090000021404291418C462D2102E0210504D5CA
:1020A0002B216A461176012103E0E10701D02021AE
:1020B000F7E7019154E00A200BE0102009E010201E
:1020C000049000210420044308200591029003E0BD
:1020D00008200021059104906002410F022905D0DB
:1020E00001CF00229446032906D006E0FF1DFF0819
:1020F000FF0003CF8C4603E080B2042900D1C0B2B8
:102100000021019121072BD50399702906D0049A4B
:102110001021059B4A401A4305D00EE040216A4633
:102120001176012108E06146014306D030216A465C
:1021300011760399517602210191049A0821059B99
:102140004A401A430CD16146014301D1610707D5CA
:1021500030216A461176012101910299491E0291AE
:102160000399582904D037A103910FA90F910DE0CD
:1021700039A1F9E76146059B049AFDF7CFFF039B60
:102180008C469B5C0F9A521E0F921370614601435E
:10219000F0D10F9807A9081A20300390600704D5E2
:1021A000012000048443029801E001200290039979
:1021B000884201DD401A00E0002041180290019899
:1021C00009180098401A0090E00306D42146149B99
:1021D000139A009800F05AF886190020049008E03D
:1021E00006A9085C149A139990470498401C761C21
:1021F000049001998842F3DBE0030CD52146149B3F
:10220000139A009800F042F8861904E0149A3020DE
:1022100013999047761C0299481E02900029F5DC1C
:1022200008E00F980F990078491C0F91149A1399A0
:102230009047761C0399481E03900029F1DCFBE6C9
:10224000092801003031323334353637383961628C
:102250006364656600000000303132333435363750
:10226000383941424344454600000000F8B5044671
:1022700000251E461746880404D405E03946202070
:10228000B0476D1C641EF9D52846F8BDFFB504465D
:10229000002581B01E46C80301D5302700E0202765
:1022A000880404D505E038460399B0476D1C641EC8
:1022B000F9D5284605B0F0BD70B50446082802D30C
:1022C0000020C04370BD1448660130180546102137
:1022D000FFF74CFD2846FFF70BFD0028FAD10F4809
:1022E000FF213018FFF742FD0D480121A14042882F
:1022F0000C4D8A43428000226300EA5283888B435C
:102300008380801D0255084834182046FFF7F0FCF2
:102310000028FAD1012070BD081000000828000034
:102320007C000020A80B00200830000010B50C46EF
:10233000174A0300FFF76AFD0805090D1115191D5D
:102340002228084601F0C0F81CE0084600F0C4FF4F
:1023500018E0086801F016F914E001F01BF820609D
:1023600010E0084601F02AF90CE0084601F02EF8CA
:1023700008E009781046FFF7F9FC03E01046FFF784
:10238000B7FC2070002010BD0020C04310BD00002D
:10239000002C2100FEB514460E46082802D300206A
:1023A000C043FEBD284B42012178D31801938123FD
:1023B000DB00D3180093254B09275D88FF433300CA
:1023C000FFF724FD0A0615191B22272C33353B3F46
:1023D00001228240012902D0002904D031E01B48AB
:1023E0002A4342801FE01948954345801BE0C540C1
:1023F000E807C00F10E0164800E016481018FFF775
:1024000077FC800220800EE01F291AD8124810188D
:1024100007E01248101811E0207004E01F2910D8BE
:102420000198FFF7A3FC0120FEBD019806E0880794
:10243000800F012805D00098F3E70098FFF758FCBB
:10244000EAE73846FEBD0000082400007C000020BA
:1024500008000200082002000828000008200000F0
:10246000F8B50C4607460D7800210846604E614AD3
:102470003B00FFF7CBFC180D1D2E34373F42464A78
:102480004E565C686E7B87999FA2A6AAAEB3B6B97A
:10249000680703D5FF213046FFF768FCA80703D57E
:1024A000C5215548FFF762FCE8071AD0FF210EE06E
:1024B000680703D5CE213046FFF758FCA80703D59F
:1024C0003A214D48FFF752FCE8070AD053214B4808
:1024D00067E001204005FFF70BFC400937E001F001
:1024E000BDF879E0002C02D021462046083100F0EA
:1024F00095FFF8BD00F0C6FE09E0206800F09AFEE6
:102500006AE0206800F0C8FF66E000F0CFFE2060BF
:1025100062E02088010A3A48FFF728FC2178394810
:102520003FE03748FFF7E4FB0502364825E0154653
:102530001046FFF7DDFB2178012902D04106490E44
:102540002EE080212BE01046FFF7D2FBC00920705F
:1025500042E02D4882782270C27862700279A270BF
:102560004279E27080792071617135E0012040028A
:10257000FFF7BEFB050203200002FFF7B9FB281896
:10258000208029E015461046FFF7B2FB217800298C
:1025900002D0012903D01FE04108490000E00143B7
:1025A0002846FFF7E3FB17E01046FFF7A1FBC00743
:1025B000C00FCCE701F030F90EE0204601F046F9FB
:1025C0000AE0204601F0D8F806E0204601F006F9BE
:1025D00002E0284601F068F90020F8BD01F0F2F8A9
:1025E000B5E701F0E7F8B2E70020C043F8BD00000E
:1025F00000F441000005200000F5410000F6410014
:1026000000C5410000C6410094000020F8B5044612
:10261000082802D30020C043F8BD60010830FFF74E
:1026200067FB8007800F012802D00420C043F8BD5B
:102630001748670138180546FFF75AFB002824D0D1
:102640001448082138180646FFF790FB3046FFF77C
:102650004FFB0028FAD1104901204988A0400842C8
:102660000CD00020F8BD3046FFF742FB000707D52D
:102670002046FFF721FE0C20C043F8BD07483E1856
:102680002846FFF735FB0028EDD10120F8BD0000FA
:1026900008300000081000007C0000200820000026
:1026A00013B5044B012269460348FEF72BFE009840
:1026B0001CBD0000FFFF0000280B0020F8B50146FC
:1026C000094A49018D18094A00208C1806462846F7
:1026D000FFF70EFB07462046FFF70AFB39024018BA
:1026E00000B2B042F2D1F8BD082402000825020071
:1026F000F8B50146094A49018D18094A00208C188D
:1027000006462846FFF7F4FA07462046FFF7F0FA98
:102710003902401800B2B042F2D1F8BD08040200FC
:1027200008050200F8B514460646082802D3002022
:10273000C043F8BD55487501281877010837009047
:102740000B00FFF763FB0F091B1D1F26439F4E5A0B
:102750005E62677499839F003846FFF7C9FA0709DC
:102760004B483F012818FFF7C3FA07434948408800
:10277000F040C007000F074327707BE0464845E064
:10278000464843E046482818FFF7B2FA0602454893
:1027900022E03846FFF7ACFA8007800F01285FD1AE
:1027A0000098FFF7A5FA400707D53F4810222818E0
:1027B0002146FFF7BBFA102006E03C480422281807
:1027C0002146FFF7B3FA0420207453E03848281854
:1027D000FFF78EFA060237482818FFF789FA3018F3
:1027E00032E03846FFF784FA8007800F012837D19E
:1027F00031482818FFF77CFA26E03046FFF778FFCB
:1028000022E03046FFF75AFF1EE02C482818FFF759
:102810006FFA2EE03846FFF76BFA8007800F012829
:102820001ED10098FFF764FA4007400F21E03846B8
:10283000FFF75EFA002816D03846FFF759FAC007AE
:10284000DFD11F497000085A208013E03846FFF797
:102850004FFA002807D03846FFF74AFAC00705D0DC
:102860000420C043F8BD0620C043F8BD0948801DC0
:10287000805D20700120F8BD3846FFF739FA000767
:10288000000F20700120C043F8BD00000831000097
:10289000084401007C000020080801000804010031
:1028A0000810010008110100083001000820010093
:1028B00008400100084101000888010008300000BC
:1028C000A80B002070B50646082802D30020C0439C
:1028D00070BD1148740120180546FFF709FA132846
:1028E00002D00220C04370BD0C48022120180446CB
:1028F000FFF73CFA2046FFF7FBF90028FAD12846FB
:10290000FFF7F6F9142805D03046FFF7D5FC032071
:10291000C04370BD012070BD0830000008100000E9
:10292000FFB50024614885B01F462546022B15D00F
:10293000172F15D0C66801AA0A210598FFF7F2FEE5
:10294000694604200856002877D0132876D0012540
:10295000ED02172806D01C2849D149E04668EAE76D
:102960008668E8E702AA05210598FFF713FD684687
:10297000007AC00707D001206946087303AA042122
:102980000598FFF707FD6A4609210598FFF7CAFE7B
:1029900069460020085E002829DDA84200DD0D8080
:1029A00000228A5E0699059800F016FA05466846E8
:1029B0000022825E3EA0069B0599FFF717FA002DC4
:1029C00002DC284609B0F0BD684605800AE0001B1D
:1029D00002B206980119059800F084FA050028D47F
:1029E000201804B269460020085EA042EFD15BE0E7
:1029F0000A4609210598FFF795FE69460020085E02
:102A0000002823DDA84200DD0D8000228A5E0699A1
:102A1000059800F0E1F90028D4DD6946088010E04F
:102A2000001B02B206980119059800F05BFA050038
:102A300005D50598FFF740FCC3E719E00CE0201826
:102A400004B269460020085EA042E9D10598FFF76C
:102A5000DDFD0128B6D127E00598FFF733FF0128F7
:102A6000B0D1334617A0079A0599FFF7BFF91BE0CD
:102A7000022F04D00B2F13D0172F0BD103E000230C
:102A80000121079A02E00023079A0921059800F026
:102A9000A1FAC5B20598854206D00020C04391E74F
:102AA00000230D21079AF1E701208BE7BC000020ED
:102AB0005265637628256429282564295B25735D82
:102AC000200D0A0025643A4C697374656E2C2054FD
:102AD000435020736572766572206C6F6F7062610F
:102AE000636B2C20706F7274205B25645D206173B2
:102AF0002025730D0A00000008B502206946087001
:102B0000FDF78AFCFEF782FDFEF766FCFEF7B8FCD7
:102B1000FEF7D2FC012280211F48FDF769FC01224B
:102B20001E491F48FEF768FB1EA0FFF75FF9FDF77F
:102B30006BFB69460120FFF793FC184900200C311C
:102B4000FFF7F4FB00F04CF81D4E1E4F134C002510
:102B5000A068002812D0A5606068194935541AA0F1
:102B6000FFF744F93846FFF7C3F8172805D1A088C6
:102B7000134902B2012000F0B5F965600223164A3C
:102B800016490020FFF7CCFE134A1723521C1349A5
:102B90000120FFF7C5FEDBE7000800500000002021
:102BA000280B00203C204E75636C656F2057363132
:102BB000303020544553542121203E200D0A00007E
:102BC000D0000020283000000D0A20696E70757456
:102BD0003A25730D0A00000088130000D00200207F
:102BE00070B58EB04F4800F077FB4E4D6B46E878DD
:102BF0006A79297907C3AB786A7829784AA0FFF700
:102C0000F5F8687A00902B7AEA79A97952A0FFF753
:102C1000EDF8687B00902B7BEA7AA97A55A0FFF744
:102C2000E5F8687C00902B7CEA7BA97B58A0FFF735
:102C3000DDF82E464036707D0090337DF27CB17C0D
:102C40005AA0FFF7D3F82C46203463782278E97F26
:102C5000A87F09900AA80EC06B7F2A7FE97EA87E14
:102C6000089305AB07C36B7E2A7EE97DA87D0190A2
:102C700002A80EC0687D00902B7DEA7CA97C52489A
:102C8000FFF7B4F8A07B637C227CE17B09AD0FC524
:102C9000A07A637B227BE17A05AD0FC5A079637AC8
:102CA000227AE17901AD0FC5607900902379E2784D
:102CB000A1784648FFF79AF8A07F73783278E17FD1
:102CC00009AD0FC5A07E637F227FE17E05AD0FC5F4
:102CD000A07D637E227EE17D01AD0FC5607D009009
:102CE000237DE27CA17C3A48FFF780F8B07B737CBF
:102CF000327CF17B09AC0FC4B07A737B327BF17A02
:102D000005AC0FC4B079737A327AF17901AC0FC493
:102D1000707900903379F278B1782E48FFF766F831
:102D20000EB070BD0C0000204D61632061646472C0
:102D30006573733A20253032783A253032783A2557
:102D40003032783A253032783A253032783A2530A8
:102D500032780A0D000000004950206164647265F9
:102D60007373203A2025642E25642E25642E256455
:102D70000A0D0000534E204D61736B092020203A4C
:102D80002025642E25642E25642E25640A0D00005E
:102D900047617465207761792020203A2025642ED0
:102DA00025642E25642E25640A0D0000444E532010
:102DB000536572766572203A2025642E25642E258F
:102DC000642E25640A0D000058390008003A0008F6
:102DD000AC39000804390008F7B582B002981446EF
:102DE000470120483818FEF783FF800200B2A04256
:102DF00000DA04461C4802993E18012088400090E1
:102E00000298FFF75BFC05463046FEF771FF172876
:102E10000AD01C2808D0002802D10298FFF74CFAEB
:102E20000620C04305B0F0BD002D14D0A54200DA45
:102E30002C4622460399029800F0ACF90B48402139
:102E400038180546FEF792FF2846FEF751FF002886
:102E5000FAD12046E6E70649009849880842CFD0D3
:102E60000020DFE708200200083000000810000002
:102E70007C000020054A002800D105481061002987
:102E800001D05161704703485061704794000020A1
:102E9000833200088132000870B50D4C2588AE05DC
:102EA000FDD5002800D10B48A061002907D0E161C1
:102EB000002A07D02262002B07D0636270BD06484B
:102EC000E061F5E705482062F5E70548606270BDFE
:102ED000940000200D360008353600081136000831
:102EE00039360008F7B582B00298470133483818E0
:102EF000FEF7FEFE8002049900B2814200DD0490DC
:102F00002F4801243E1802982E4D84400298FFF766
:102F1000EFFB00903046FEF7EBFE172807D01C2889
:102F200005D0002829D10298FFF7C6F925E00099BD
:102F30000498884203DD68880442E7D025E0024611
:102F40000399029800F050F91E488088044223D06B
:102F50001D483D182846FEF7CBFEC00617D4304664
:102F6000FEF7C6FE17280CD01C280AD00028DAD09D
:102F70002846FEF7BDFE0007D5D40620C04305B0A5
:102F8000F0BD104840880442E4D00020F7E70F4825
:102F900010213818FEF7EAFE0D48202138180546A2
:102FA000FEF7E4FE2846FEF7A3FE0028FAD1054806
:102FB00081880C4384800498E1E700000800020047
:102FC000083000007C0000200820000008280000D5
:102FD00008100000FFB585B01D46164604460828B7
:102FE00003D30020C04309B0F0BD06986F46010727
:102FF000090F5D480B00FEF709FF0F580918185814
:1030000058581858281818583718580004223946A4
:10301000FEF78CFE002108463A5C401C5118C0B2F5
:1030200089B20428F8D300293CD050486907DAD483
:10303000002D48D00699092941D039DC01293ED01C
:103040000329D0D007293ED137E01022394648481D
:10305000FEF76CFE002108463A5C401C5118C0B2D5
:1030600089B21028F8D3DEE704223946FEF75EFE67
:10307000002108463A5C401C5118C0B289B20428AD
:10308000F8D300290ED0102269463948FEF74EFECB
:10309000002108463A5C401C5118C0B289B2102881
:1030A000F8D3C0E70B20C0439DE70420C0439AE754
:1030B0000B2998D00D2906D101E0A90701E0902144
:1030C000294000298FD12046FFF7F6F82909069AF2
:1030D0006001090111430830FEF748FE2548A907A1
:1030E0006701890F3818FEF741FE002E0AD12248E9
:1030F000224A0688711C89B20180914202D10121C5
:10310000890201801E48310A3818FEF72FFE1D483B
:10311000F1B23818FEF72AFE1B480121381806467E
:10312000FEF724FE3046FEF7E3FD0028FAD1012029
:10313000A04011492B074A88DB0F8243A340134369
:103140004B808A8882438A80104A00206100505256
:103150000949891D08550E483D182846FEF7C8FD47
:103160000028FAD060B23EE700384100FAFFFFFFC6
:1031700000404100084401007C000020F0FF0000F6
:10318000081401000815010008100000A80B002019
:1031900008300000F7B5029900291FD046011048F9
:1031A00035182846FEF7A4FD07020E4834182046BD
:1031B000FEF79EFD381807B2380280191830029ABF
:1031C0000199FEF7B3FD02983E183004010E28461F
:1031D000FEF7CCFDF1B22046FEF7C8FDFEBD0000B3
:1031E0000828020008290200F7B546010F483518E3
:1031F0002846FEF77DFD07020D4834182046FEF7ED
:1032000077FD381807B2380280191030029A0199F8
:10321000FEF7C8FD02983E183004010E2846FEF75E
:10322000A5FDF1B22046FEF7A1FDFEBD080C02008F
:10323000080D0200F8B50204C1B20002000E0090B1
:10324000160E0B48FEF792FD00240A4F0125284672
:10325000A040304204D06001C019FF21FEF786FD76
:10326000641C082CF3DB04480099FEF77FFDF8BDD1
:10327000000821000828000000282100704770473E
:103280007047704710B50748FEF732FD0404064842
:10329000FEF72EFD0002044321200004FEF728FD66
:1032A000204310BD000221000001210010B5074895
:1032B000FEF71EFD04040648FEF71AFD0002044353
:1032C0000448FEF715FD204310BD00000024210036
:1032D000001421000004210070B5044601460025B9
:1032E00006222248FEF722FD214604220E31204804
:1032F000FEF71CFD214604220A311E48FEF716FD8A
:103300000422A11D1C48FEF711FD21461022423166
:103310001A48FEF70BFD2146102232311848FEF7FD
:1033200005FD2146102212311648FEF7FFFC21460A
:10333000102222311448FEF7F9FC14486119425D4D
:1033400040316D1CEDB28A74042DF7D31049002072
:1033500022180B5C4032401CC0B293751028F7D382
:103360000A48401E00786034A07170BD0020410002
:10337000003041000034410000384100007041003D
:103380000060410000404100005041008D000020DD
:10339000B80B002010B50A48FEF7AAFC04460948FD
:1033A000FEF7A6FC2102441801208005FEF7A0FCD0
:1033B000210444180448FEF79BFC2106401810BD68
:1033C00000084000000940000004400070B50446B9
:1033D0000D48FEF78DFC207021204004FEF788FC8C
:1033E00005020A48FEF784FC281860800848FEF7AA
:1033F0007FFC20710748FEF77BFC05020648FEF7BC
:1034000077FC2818E08070BD0004420000014200F3
:10341000000C42000008420000094200F8B50D46C9
:103420000646002400F01AF9002E14D00022B05CE9
:10343000001944B2102C17DC521C52B2082AF6DBD9
:10344000134F00246001315DC019FEF78FFC641C2E
:1034500064B2082CF6DB002D18D0002108462A5C47
:10346000511849B2102902DD0020C043F8BD401CAC
:1034700040B20828F3DB074E00246001295D801963
:10348000FEF774FC641C64B2082CF6DB0020F8BD67
:10349000080002000820020070B50204C1B2000258
:1034A000050E140E0548FEF761FC21460448FEF7A0
:1034B0005DFC29460348FEF759FC70BD000421005D
:1034C000001421000024210070B5044601460025A7
:1034D00006222248FEF766FC214604220E312048CF
:1034E000FEF760FC214604220A311E48FEF75AFC12
:1034F0000422A11D1C48FEF755FC21461022423132
:103500001A48FEF74FFC2146102232311848FEF7C8
:1035100049FC2146102212311648FEF743FC214691
:10352000102222311448FEF73DFC14486119403145
:10353000897C41556D1CEDB2042DF7D31049002054
:1035400022184032927D0A54401CC0B21028F7D392
:1035500060340A49A079491E087070BD00204100FE
:10356000003041000034410000384100007041004B
:103570000060410000404100005041008D000020EB
:10358000B80B002010B50446C1B20948FEF7EEFBA7
:103590002004010E0748FEF7E9FB2002010E01207E
:1035A0008005FEF7E3FB210E0348FEF7DFFB10BDAD
:1035B00000084000000940000004400010B5044627
:1035C00001780D48FEF7D2FB6088010A21204004F3
:1035D000FEF7CCFBA1780948FEF7C8FB2179084823
:1035E000FEF7C4FBE088010A0648FEF7BFFBA1799D
:1035F0000548FEF7BBFB10BD00044200000142007D
:10360000000C420000084200000942000020704700
:10361000F8B50E4605460024054F05E0B869804719
:10362000641C287024B26D1CB442F7DBF8BD0000A6
:103630009400002070470000F8B50E4605460024AF
:10364000054F05E02878F9696D1C8847641C24B291
:10365000B442F7DBF8BD000094000020F0B5012073
:1036600095B04005FEF744FB0446CE213748FEF7EF
:103670007DFB374D062210A92846FEF757FB354E35
:10368000042212A93046FEF751FB334F042213A93E
:103690003846FEF74BFB042214A93048FEF746FBE0
:1036A000102269462E48FEF741FB102204A92D483E
:1036B000FEF73CFB102208A92B48FEF737FB10222F
:1036C0000CA92A48FEF732FB00212948FEF74EFBE1
:1036D0002748FEF70DFB3A212648FEF747FB062256
:1036E00010A92846FEF75EFB042212A93046FEF719
:1036F00059FB042213A93846FEF754FB042214A9EF
:103700001648FEF74FFB102269461548FEF74AFBA4
:10371000102204A91348FEF745FB102208A91248FD
:10372000FEF740FB10220CA91048FEF73BFB2006D9
:1037300003D5FF210548FEF719FB600603D5C52117
:103740000C48FEF713FB15B0F0BD000000F441007B
:1037500000204100003041000034410000384100A9
:1037600000704100006041000040410000504100F5
:103770000004200000F5410070B504460320000558
:10378000FEF7B6FA05460A48FEF7B2FA000701D579
:10379000022002E0A806C017401C2070E806C017EF
:1037A000401C60702807C017401CA07070BD00004E
:1037B000001D300010B503200005FEF799FAC00780
:1037C000C00F10BD10B50448FEF792FA800601D56F
:1037D000012010BD002010BD001D300070B5044652
:1037E00003200005FEF784FA05460A48FEF780FA32
:1037F000000701D5022002E0A806C017401C207077
:10380000A807C017401C60706807C017401CA07054
:1038100070BD0000001D300070B50A4D2846FEF74F
:1038200067FA01210843084E044653213046FEF74B
:103830009DFA21462846FEF799FAFF213046FEF709
:1038400095FA70BD001D300000F6410070B50546C8
:1038500000780024124E022830460ED0FEF748FAB7
:10386000F72101403046FEF781FA2878012812D06E
:1038700068780424002808D008E0FEF739FA082107
:1038800001433046FEF772FA05E00624A8780028C6
:1038900001D10120044321460248FEF767FA70BDBA
:1038A000001D3000001C300070B5084D044628464D
:1038B000FEF71EFA012C06D0DF21084001462846FB
:1038C000FEF754FA70BD20210843F7E7001D3000D1
:1038D00002020202020202020202020202020202C8
:1038E00000000000000000000102030406070809B0
:1038F000030406080C101820300000000001020329
:103900000400000047573620203A20252E32582543
:103910002E32583A252E3258252E32583A252E323C
:1039200058252E32583A252E3258252E32583A250F
:103930002E3258252E32583A252E3258252E3258FE
:103940003A252E3258252E32583A252E3258252E19
:1039500032580D0A000000004C4C4120203A20252E
:103960002E3258252E32583A252E3258252E3258CE
:103970003A252E3258252E32583A252E3258252EE9
:1039800032583A252E3258252E32583A252E3258A2
:10399000252E32583A252E3258252E32583A252EC9
:1039A0003258252E32580D0A00000000534E3620A2
:1039B000203A20252E3258252E32583A252E3258BC
:1039C000252E32583A252E3258252E32583A252E99
:1039D0003258252E32583A252E3258252E32583A52
:1039E000252E3258252E32583A252E3258252E3281
:1039F000583A252E3258252E32580A0D0000000064
:103A000047554120203A20252E3258252E32583A4B
:103A1000252E3258252E32583A252E3258252E3250
:103A2000583A252E3258252E32583A252E3258250E
:103A30002E32583A252E3258252E32583A252E321B
:103A400058252E32583A252E3258252E32580A0D36
:103A50000000000049507634206D6F64650000005E
:103A600049507636206D6F64650000004475616CC6
:103A7000204950206D6F6465000000009C3A0008EA
:103A800000000020D0000000261E00086C3B00084B
:103A9000D0000020F80E0000361E000800000000D4
:103AA00000000000000000000008DCFFFFFFC0A8CD
:103AB000000DFFFFFF00C0A80001FE800000000015
:103AC00000000200DCFFFE5757620000000000000B
:103AD00000000000000000000000000000000000E6
:103AE00000000000000000000000000000000000D6
:103AF00000000000000000000000A87E3F01000060
:103B000000000000000000000000000000000000B5
:103B10000000000000002000000400000000000081
:103B20000000000000000000000000000000000095
:103B300001025736313030007D3200087F320008F4
:103B400083320008813200080D360008353600083F
:103B5000113600083936000850C30000543A0008F6
:0C3B6000603A00086C3A00080000000009
:04000005080000C12E
:00000001FF
